{
  "contractName": "Ballot",
  "abi": [
    {
      "inputs": [],
      "stateMutability": "nonpayable",
      "type": "constructor"
    },
    {
      "inputs": [],
      "name": "chairperson",
      "outputs": [
        {
          "internalType": "address",
          "name": "",
          "type": "address"
        }
      ],
      "stateMutability": "view",
      "type": "function",
      "constant": true
    },
    {
      "inputs": [
        {
          "internalType": "address",
          "name": "",
          "type": "address"
        }
      ],
      "name": "voters",
      "outputs": [
        {
          "internalType": "uint256",
          "name": "weight",
          "type": "uint256"
        },
        {
          "internalType": "bool",
          "name": "voted",
          "type": "bool"
        },
        {
          "internalType": "uint8",
          "name": "vote",
          "type": "uint8"
        }
      ],
      "stateMutability": "view",
      "type": "function",
      "constant": true
    },
    {
      "inputs": [
        {
          "internalType": "address",
          "name": "toVoter",
          "type": "address"
        }
      ],
      "name": "register",
      "outputs": [],
      "stateMutability": "nonpayable",
      "type": "function"
    },
    {
      "inputs": [
        {
          "internalType": "uint8",
          "name": "toProposal",
          "type": "uint8"
        }
      ],
      "name": "vote",
      "outputs": [],
      "stateMutability": "nonpayable",
      "type": "function"
    },
    {
      "inputs": [],
      "name": "winningProposal",
      "outputs": [
        {
          "internalType": "uint8",
          "name": "_winningProposal",
          "type": "uint8"
        }
      ],
      "stateMutability": "view",
      "type": "function",
      "constant": true
    },
    {
      "inputs": [],
      "name": "getCount",
      "outputs": [
        {
          "internalType": "uint256[4]",
          "name": "",
          "type": "uint256[4]"
        }
      ],
      "stateMutability": "nonpayable",
      "type": "function"
    }
  ],
  "bytecode": "0x608060405234801561001057600080fd5b50336000806101000a81548173ffffffffffffffffffffffffffffffffffffffff021916908373ffffffffffffffffffffffffffffffffffffffff1602179055506002600160008060009054906101000a900473ffffffffffffffffffffffffffffffffffffffff1673ffffffffffffffffffffffffffffffffffffffff1673ffffffffffffffffffffffffffffffffffffffff16815260200190815260200160002060000181905550610836806100c96000396000f3fe608060405234801561001057600080fd5b50600436106100625760003560e01c80632e4176cf146100675780634420e48614610085578063609ff1bd146100a1578063a3ec138d146100bf578063a87d942c146100f1578063b3f98adc1461010f575b600080fd5b61006f61012b565b60405161007c91906105e5565b60405180910390f35b61009f600480360381019061009a91906104d1565b61014f565b005b6100a961029b565b6040516100b69190610652565b60405180910390f35b6100d960048036038101906100d491906104d1565b610308565b6040516100e89392919061061b565b60405180910390f35b6100f961034c565b6040516101069190610600565b60405180910390f35b610129600480360381019061012491906104fe565b610397565b005b60008054906101000a900473ffffffffffffffffffffffffffffffffffffffff1681565b60008054906101000a900473ffffffffffffffffffffffffffffffffffffffff1673ffffffffffffffffffffffffffffffffffffffff163373ffffffffffffffffffffffffffffffffffffffff16146101a757600080fd5b6000600160008373ffffffffffffffffffffffffffffffffffffffff1673ffffffffffffffffffffffffffffffffffffffff16815260200190815260200160002060000154146101f657600080fd5b60018060008373ffffffffffffffffffffffffffffffffffffffff1673ffffffffffffffffffffffffffffffffffffffff168152602001908152602001600020600001819055506000600160008373ffffffffffffffffffffffffffffffffffffffff1673ffffffffffffffffffffffffffffffffffffffff16815260200190815260200160002060010160006101000a81548160ff02191690831515021790555050565b6000806000905060005b60048160ff161015610303578160028260ff16600481106102c9576102c861079e565b5b015411156102f05760028160ff16600481106102e8576102e761079e565b5b015491508092505b80806102fb90610745565b9150506102a5565b505090565b60016020528060005260406000206000915090508060000154908060010160009054906101000a900460ff16908060010160019054906101000a900460ff16905083565b610354610485565b600260048060200260405190810160405280929190826004801561038d576020028201915b815481526020019060010190808311610379575b5050505050905090565b6000600160003373ffffffffffffffffffffffffffffffffffffffff1673ffffffffffffffffffffffffffffffffffffffff16815260200190815260200160002090508060010160009054906101000a900460ff16806103fb575060048260ff1610155b8061040a575060008160000154145b1561041457600080fd5b60018160010160006101000a81548160ff021916908315150217905550818160010160016101000a81548160ff021916908360ff160217905550806000015460028360ff166004811061046a5761046961079e565b5b01600082825461047a919061069a565b925050819055505050565b6040518060800160405280600490602082028036833780820191505090505090565b6000813590506104b6816107d2565b92915050565b6000813590506104cb816107e9565b92915050565b6000602082840312156104e7576104e66107cd565b5b60006104f5848285016104a7565b91505092915050565b600060208284031215610514576105136107cd565b5b6000610522848285016104bc565b91505092915050565b600061053783836105b8565b60208301905092915050565b61054c816106f0565b82525050565b61055b81610677565b610565818461068f565b92506105708261066d565b8060005b838110156105a1578151610588878261052b565b965061059383610682565b925050600181019050610574565b505050505050565b6105b281610702565b82525050565b6105c18161072e565b82525050565b6105d08161072e565b82525050565b6105df81610738565b82525050565b60006020820190506105fa6000830184610543565b92915050565b60006080820190506106156000830184610552565b92915050565b600060608201905061063060008301866105c7565b61063d60208301856105a9565b61064a60408301846105d6565b949350505050565b600060208201905061066760008301846105d6565b92915050565b6000819050919050565b600060049050919050565b6000602082019050919050565b600081905092915050565b60006106a58261072e565b91506106b08361072e565b9250827fffffffffffffffffffffffffffffffffffffffffffffffffffffffffffffffff038211156106e5576106e461076f565b5b828201905092915050565b60006106fb8261070e565b9050919050565b60008115159050919050565b600073ffffffffffffffffffffffffffffffffffffffff82169050919050565b6000819050919050565b600060ff82169050919050565b600061075082610738565b915060ff8214156107645761076361076f565b5b600182019050919050565b7f4e487b7100000000000000000000000000000000000000000000000000000000600052601160045260246000fd5b7f4e487b7100000000000000000000000000000000000000000000000000000000600052603260045260246000fd5b600080fd5b6107db816106f0565b81146107e657600080fd5b50565b6107f281610738565b81146107fd57600080fd5b5056fea264697066735822122061d2b4935129fd67e33280600eb3b4b48e0db780b832048c950c435ae367f2e164736f6c63430008060033",
  "immutableReferences": {},
  "source": "pragma solidity ^0.8.0;\n\ncontract Ballot {\n\n    struct Voter {\n        uint weight;\n        bool voted;\n        uint8 vote;\n        // address delegate;\n    }\n\n    //modifer\n    modifier onlyOwner () {\n      require(msg.sender == chairperson);\n      _;\n    }\n\n    /* struct Proposal {\n        uint voteCount; // could add other data about proposal\n    } */\n    address public chairperson;\n    mapping(address => Voter) public voters;\n    uint[4]  proposals;\n\n    // Create a new ballot with 4 different proposals.\n    constructor () public {\n        chairperson = msg.sender;\n        voters[chairperson].weight = 2;\n    }\n\n    /// Give $(toVoter) the right to vote on this ballot.\n    /// May only be called by $(chairperson).\n    function register(address toVoter) public onlyOwner{\n        if(voters[toVoter].weight != 0) revert();\n        voters[toVoter].weight = 1;\n        voters[toVoter].voted = false;\n    }\n\n    /// Give a single vote to proposal $(toProposal).\n    function vote(uint8 toProposal) public {\n        Voter storage sender = voters[msg.sender];\n        if (sender.voted || toProposal >= 4 || sender.weight == 0) revert();\n        sender.voted = true;\n        sender.vote = toProposal;\n        proposals[toProposal] += sender.weight;\n    }\n\n    function winningProposal() public view returns (uint8 _winningProposal) {\n        uint256 winningVoteCount = 0;\n        for (uint8 prop = 0; prop < 4; prop++)\n            if (proposals[prop] > winningVoteCount) {\n                winningVoteCount = proposals[prop];\n                _winningProposal = prop;\n            }\n    }\n\n    function getCount() public  returns (uint[4] memory) {\n        return   proposals;\n    }\n}\n",
  "sourcePath": "/home/sunil/Desktop/Ballot-Box-/contracts/Ballot.sol",
  "compiler": {
    "name": "solc",
    "version": "0.8.6+commit.11564f7e.Emscripten.clang"
  },
  "schemaVersion": "3.4.1",
  "updatedAt": "2021-07-19T06:53:01.581Z",
  "networkType": "ethereum",
  "devdoc": {
    "kind": "dev",
    "methods": {},
    "version": 1
  },
  "userdoc": {
    "kind": "user",
    "methods": {
      "register(address)": {
        "notice": "Give $(toVoter) the right to vote on this ballot. May only be called by $(chairperson)."
      },
      "vote(uint8)": {
        "notice": "Give a single vote to proposal $(toProposal)."
      }
    },
    "version": 1
  }
}